{
  "contractName": "FoundationFactory",
  "abi": [
    {
      "inputs": [
        {
          "internalType": "address",
          "name": "_logic",
          "type": "address"
        }
      ],
      "stateMutability": "nonpayable",
      "type": "constructor"
    },
    {
      "anonymous": false,
      "inputs": [
        {
          "indexed": true,
          "internalType": "address",
          "name": "previousOwner",
          "type": "address"
        },
        {
          "indexed": true,
          "internalType": "address",
          "name": "newOwner",
          "type": "address"
        }
      ],
      "name": "OwnershipTransferred",
      "type": "event"
    },
    {
      "inputs": [
        {
          "internalType": "uint256",
          "name": "",
          "type": "uint256"
        }
      ],
      "name": "foundations",
      "outputs": [
        {
          "internalType": "address",
          "name": "",
          "type": "address"
        }
      ],
      "stateMutability": "view",
      "type": "function",
      "constant": true
    },
    {
      "inputs": [],
      "name": "owner",
      "outputs": [
        {
          "internalType": "address",
          "name": "",
          "type": "address"
        }
      ],
      "stateMutability": "view",
      "type": "function",
      "constant": true
    },
    {
      "inputs": [],
      "name": "renounceOwnership",
      "outputs": [],
      "stateMutability": "nonpayable",
      "type": "function"
    },
    {
      "inputs": [
        {
          "internalType": "address",
          "name": "newOwner",
          "type": "address"
        }
      ],
      "name": "transferOwnership",
      "outputs": [],
      "stateMutability": "nonpayable",
      "type": "function"
    },
    {
      "inputs": [],
      "name": "upgradeableBeacon",
      "outputs": [
        {
          "internalType": "contract UpgradeableBeacon",
          "name": "",
          "type": "address"
        }
      ],
      "stateMutability": "view",
      "type": "function",
      "constant": true
    },
    {
      "inputs": [
        {
          "internalType": "address",
          "name": "newLogicImpl",
          "type": "address"
        }
      ],
      "name": "upgrade",
      "outputs": [],
      "stateMutability": "nonpayable",
      "type": "function"
    },
    {
      "inputs": [
        {
          "internalType": "string",
          "name": "_name",
          "type": "string"
        },
        {
          "internalType": "address",
          "name": "_owner",
          "type": "address"
        }
      ],
      "name": "createFoundation",
      "outputs": [],
      "stateMutability": "nonpayable",
      "type": "function"
    }
  ],
  "bytecode": "0x60a060405234801561001057600080fd5b506040516110f73803806110f783398101604081905261002f91610099565b61003833610049565b6001600160a01b03166080526100c9565b600080546001600160a01b038381166001600160a01b0319831681178455604051919092169283917f8be0079c531659141344cd1fd0a4f28419497f9722a3daafe3b4186f6b6457e09190a35050565b6000602082840312156100ab57600080fd5b81516001600160a01b03811681146100c257600080fd5b9392505050565b6080516110056100f2600039600081816101110152818161019f015261022f01526110056000f3fe60806040523480156200001157600080fd5b5060043610620000875760003560e01c8063715018a61162000062578063715018a614620000ef5780638da5cb5b14620000f9578063d2609520146200010b578063f2fde38b146200013357600080fd5b80630900f010146200008c5780631d2bf02814620000a557806360a7bcdb14620000d8575b600080fd5b620000a36200009d36600462000473565b6200014a565b005b620000bc620000b636600462000498565b62000200565b6040516001600160a01b03909116815260200160405180910390f35b620000a3620000e9366004620004b2565b6200022b565b620000a36200031b565b6000546001600160a01b0316620000bc565b620000bc7f000000000000000000000000000000000000000000000000000000000000000081565b620000a36200014436600462000473565b62000356565b6000546001600160a01b03163314620001805760405162461bcd60e51b815260040162000177906200053a565b60405180910390fd5b604051631b2ce7f360e11b81526001600160a01b0382811660048301527f00000000000000000000000000000000000000000000000000000000000000001690633659cfe690602401600060405180830381600087803b158015620001e457600080fd5b505af1158015620001f9573d6000803e3d6000fd5b5050505050565b600181815481106200021157600080fd5b6000918252602090912001546001600160a01b0316905081565b60007f000000000000000000000000000000000000000000000000000000000000000084848460405160240162000265939291906200056f565b60408051601f198184030181529181526020820180516001600160e01b0316637ab4339d60e01b179052516200029b9062000448565b620002a8929190620005b0565b604051809103906000f080158015620002c5573d6000803e3d6000fd5b506001805480820182556000919091527fb10e2d527612073b26eecdfd717e6a320cf44b4afac2b0732d9fcbe2b7fa0cf60180546001600160a01b0319166001600160a01b039290921691909117905550505050565b6000546001600160a01b03163314620003485760405162461bcd60e51b815260040162000177906200053a565b620003546000620003f8565b565b6000546001600160a01b03163314620003835760405162461bcd60e51b815260040162000177906200053a565b6001600160a01b038116620003ea5760405162461bcd60e51b815260206004820152602660248201527f4f776e61626c653a206e6577206f776e657220697320746865207a65726f206160448201526564647265737360d01b606482015260840162000177565b620003f581620003f8565b50565b600080546001600160a01b038381166001600160a01b0319831681178455604051919092169283917f8be0079c531659141344cd1fd0a4f28419497f9722a3daafe3b4186f6b6457e09190a35050565b6109b7806200061983390190565b80356001600160a01b03811681146200046e57600080fd5b919050565b6000602082840312156200048657600080fd5b620004918262000456565b9392505050565b600060208284031215620004ab57600080fd5b5035919050565b600080600060408486031215620004c857600080fd5b833567ffffffffffffffff80821115620004e157600080fd5b818601915086601f830112620004f657600080fd5b8135818111156200050657600080fd5b8760208285010111156200051957600080fd5b60209283019550935062000531918601905062000456565b90509250925092565b6020808252818101527f4f776e61626c653a2063616c6c6572206973206e6f7420746865206f776e6572604082015260600190565b6040815282604082015282846060830137600060608483018101919091526001600160a01b03929092166020820152601f909201601f191690910101919050565b60018060a01b038316815260006020604081840152835180604085015260005b81811015620005ee57858101830151858201606001528201620005d0565b8181111562000601576000606083870101525b50601f01601f19169290920160600194935050505056fe60806040526040516109b73803806109b7833981016040819052610022916104a9565b61004d60017fa3f0ad74e5423aebfd80d3ef4346578335a9a72aeaee59ff6cb3582b35133d51610569565b600080516020610970833981519152146100695761006961058e565b6100758282600061007c565b505061060e565b61008583610156565b6040516001600160a01b038416907f1cf3b03a6cf19fa2baba4df148e9dcabedea7f8a5c07840e207e5c089be95d3e90600090a26000825111806100c65750805b156101515761014f836001600160a01b0316635c60da1b6040518163ffffffff1660e01b815260040160206040518083038186803b15801561010757600080fd5b505afa15801561011b573d6000803e3d6000fd5b505050506040513d601f19601f8201168201806040525081019061013f91906105a4565b836102f660201b6100291760201c565b505b505050565b6101698161032260201b6100551760201c565b6101c85760405162461bcd60e51b815260206004820152602560248201527f455243313936373a206e657720626561636f6e206973206e6f74206120636f6e6044820152641d1c9858dd60da1b60648201526084015b60405180910390fd5b61024b816001600160a01b0316635c60da1b6040518163ffffffff1660e01b815260040160206040518083038186803b15801561020457600080fd5b505afa158015610218573d6000803e3d6000fd5b505050506040513d601f19601f8201168201806040525081019061023c91906105a4565b61032260201b6100551760201c565b6102b05760405162461bcd60e51b815260206004820152603060248201527f455243313936373a20626561636f6e20696d706c656d656e746174696f6e206960448201526f1cc81b9bdd08184818dbdb9d1c9858dd60821b60648201526084016101bf565b806102d560008051602061097083398151915260001b61033160201b6100641760201c565b80546001600160a01b0319166001600160a01b039290921691909117905550565b606061031b838360405180606001604052806027815260200161099060279139610334565b9392505050565b6001600160a01b03163b151590565b90565b60606001600160a01b0384163b61039c5760405162461bcd60e51b815260206004820152602660248201527f416464726573733a2064656c65676174652063616c6c20746f206e6f6e2d636f6044820152651b9d1c9858dd60d21b60648201526084016101bf565b600080856001600160a01b0316856040516103b791906105bf565b600060405180830381855af49150503d80600081146103f2576040519150601f19603f3d011682016040523d82523d6000602084013e6103f7565b606091505b509092509050610408828286610412565b9695505050505050565b6060831561042157508161031b565b8251156104315782518084602001fd5b8160405162461bcd60e51b81526004016101bf91906105db565b80516001600160a01b038116811461046257600080fd5b919050565b634e487b7160e01b600052604160045260246000fd5b60005b83811015610498578181015183820152602001610480565b8381111561014f5750506000910152565b600080604083850312156104bc57600080fd5b6104c58361044b565b60208401519092506001600160401b03808211156104e257600080fd5b818501915085601f8301126104f657600080fd5b81518181111561050857610508610467565b604051601f8201601f19908116603f0116810190838211818310171561053057610530610467565b8160405282815288602084870101111561054957600080fd5b61055a83602083016020880161047d565b80955050505050509250929050565b60008282101561058957634e487b7160e01b600052601160045260246000fd5b500390565b634e487b7160e01b600052600160045260246000fd5b6000602082840312156105b657600080fd5b61031b8261044b565b600082516105d181846020870161047d565b9190910192915050565b60208152600082518060208401526105fa81604085016020870161047d565b601f01601f19169190910160400192915050565b6103538061061d6000396000f3fe60806040523661001357610011610017565b005b6100115b610027610022610067565b61010f565b565b606061004e83836040518060600160405280602781526020016102f760279139610133565b9392505050565b6001600160a01b03163b151590565b90565b600061009a7fa3f0ad74e5423aebfd80d3ef4346578335a9a72aeaee59ff6cb3582b35133d50546001600160a01b031690565b6001600160a01b0316635c60da1b6040518163ffffffff1660e01b815260040160206040518083038186803b1580156100d257600080fd5b505afa1580156100e6573d6000803e3d6000fd5b505050506040513d601f19601f8201168201806040525081019061010a919061024e565b905090565b3660008037600080366000845af43d6000803e80801561012e573d6000f35b3d6000fd5b60606001600160a01b0384163b6101a05760405162461bcd60e51b815260206004820152602660248201527f416464726573733a2064656c65676174652063616c6c20746f206e6f6e2d636f6044820152651b9d1c9858dd60d21b60648201526084015b60405180910390fd5b600080856001600160a01b0316856040516101bb91906102a7565b600060405180830381855af49150503d80600081146101f6576040519150601f19603f3d011682016040523d82523d6000602084013e6101fb565b606091505b509150915061020b828286610215565b9695505050505050565b6060831561022457508161004e565b8251156102345782518084602001fd5b8160405162461bcd60e51b815260040161019791906102c3565b60006020828403121561026057600080fd5b81516001600160a01b038116811461004e57600080fd5b60005b8381101561029257818101518382015260200161027a565b838111156102a1576000848401525b50505050565b600082516102b9818460208701610277565b9190910192915050565b60208152600082518060208401526102e2816040850160208701610277565b601f01601f1916919091016040019291505056fe416464726573733a206c6f772d6c6576656c2064656c65676174652063616c6c206661696c6564a264697066735822122038ba534465cf106b7c29a45b679136b2a346893bb14694d05bbd395bedb10f0e64736f6c63430008090033a3f0ad74e5423aebfd80d3ef4346578335a9a72aeaee59ff6cb3582b35133d50416464726573733a206c6f772d6c6576656c2064656c65676174652063616c6c206661696c6564a2646970667358221220149eb73f0fd25879cf30af4a66aa6ae23dfdc903ed2f239dd0f2f284e8336d9e64736f6c63430008090033",
  "immutableReferences": {
    "1038": [
      {
        "length": 32,
        "start": 273
      },
      {
        "length": 32,
        "start": 415
      },
      {
        "length": 32,
        "start": 559
      }
    ]
  },
  "source": "// SPDX-License-Identifier: MIT\r\n\r\npragma solidity 0.8.9;\r\n\r\nimport \"@openzeppelin/contracts/proxy/beacon/BeaconProxy.sol\";\r\nimport \"@openzeppelin/contracts/proxy/beacon/UpgradeableBeacon.sol\";\r\nimport \"@openzeppelin/contracts/access/Ownable.sol\";\r\n\r\ncontract FoundationFactory is Ownable {\r\n\r\n    // ======== Immutable storage ========\r\n    // upgradeable beacon\r\n    UpgradeableBeacon immutable public upgradeableBeacon;\r\n\r\n    address[] public foundations;\r\n\r\n    // ======== Constructor ========\r\n    constructor(address _logic) {\r\n        upgradeableBeacon =  UpgradeableBeacon(_logic);\r\n    }\r\n\r\n    function upgrade(address newLogicImpl) onlyOwner public {\r\n        upgradeableBeacon.upgradeTo(newLogicImpl);\r\n    }\r\n\r\n    // ======== Deploy contract ========\r\n    function createFoundation(string calldata _name, address _owner)\r\n        external\r\n    {\r\n        BeaconProxy proxy = new BeaconProxy(\r\n           address(upgradeableBeacon),\r\n        abi.encodeWithSignature(\"initialize(string,address)\", _name, _owner)\r\n        );\r\n        foundations.push(address(proxy));\r\n    }\r\n}",
  "sourcePath": "D:\\Applicature\\beacon\\contracts\\FoundationFactory.sol",
  "compiler": {
    "name": "solc",
    "version": "0.8.9+commit.e5eed63a.Emscripten.clang"
  },
  "schemaVersion": "3.4.4",
  "updatedAt": "2022-05-26T14:16:50.025Z",
  "networkType": "ethereum",
  "devdoc": {
    "kind": "dev",
    "methods": {
      "owner()": {
        "details": "Returns the address of the current owner."
      },
      "renounceOwnership()": {
        "details": "Leaves the contract without owner. It will not be possible to call `onlyOwner` functions anymore. Can only be called by the current owner. NOTE: Renouncing ownership will leave the contract without an owner, thereby removing any functionality that is only available to the owner."
      },
      "transferOwnership(address)": {
        "details": "Transfers ownership of the contract to a new account (`newOwner`). Can only be called by the current owner."
      }
    },
    "version": 1
  },
  "userdoc": {
    "kind": "user",
    "methods": {},
    "version": 1
  }
}