{
  "contractName": "FoundationV1",
  "abi": [
    {
      "inputs": [],
      "name": "balance",
      "outputs": [
        {
          "internalType": "uint256",
          "name": "",
          "type": "uint256"
        }
      ],
      "stateMutability": "view",
      "type": "function"
    },
    {
      "inputs": [],
      "name": "name",
      "outputs": [
        {
          "internalType": "string",
          "name": "",
          "type": "string"
        }
      ],
      "stateMutability": "view",
      "type": "function"
    },
    {
      "inputs": [],
      "name": "owner",
      "outputs": [
        {
          "internalType": "address",
          "name": "",
          "type": "address"
        }
      ],
      "stateMutability": "view",
      "type": "function"
    },
    {
      "inputs": [
        {
          "internalType": "string",
          "name": "_name",
          "type": "string"
        },
        {
          "internalType": "address",
          "name": "_owner",
          "type": "address"
        }
      ],
      "name": "initialize",
      "outputs": [],
      "stateMutability": "nonpayable",
      "type": "function"
    },
    {
      "inputs": [],
      "name": "replenish",
      "outputs": [],
      "stateMutability": "payable",
      "type": "function"
    }
  ],
  "bytecode": "0x608060405234801561001057600080fd5b50610457806100206000396000f3fe60806040526004361061004a5760003560e01c806306fdde031461004f5780637ab4339d1461007a5780638da5cb5b1461009c578063b69ef8a8146100d4578063d163af7b146100f8575b600080fd5b34801561005b57600080fd5b50610064610100565b6040516100719190610277565b60405180910390f35b34801561008657600080fd5b5061009a6100953660046102fe565b61018e565b005b3480156100a857600080fd5b506001546100bc906001600160a01b031681565b6040516001600160a01b039091168152602001610071565b3480156100e057600080fd5b506100ea60025481565b604051908152602001610071565b61009a6101c5565b6000805461010d906103c0565b80601f0160208091040260200160405190810160405280929190818152602001828054610139906103c0565b80156101865780601f1061015b57610100808354040283529160200191610186565b820191906000526020600020905b81548152906001019060200180831161016957829003601f168201915b505050505081565b81516101a19060009060208501906101de565b50600180546001600160a01b0319166001600160a01b039290921691909117905550565b34600260008282546101d791906103fb565b9091555050565b8280546101ea906103c0565b90600052602060002090601f01602090048101928261020c5760008555610252565b82601f1061022557805160ff1916838001178555610252565b82800160010185558215610252579182015b82811115610252578251825591602001919060010190610237565b5061025e929150610262565b5090565b5b8082111561025e5760008155600101610263565b600060208083528351808285015260005b818110156102a457858101830151858201604001528201610288565b818111156102b6576000604083870101525b50601f01601f1916929092016040019392505050565b634e487b7160e01b600052604160045260246000fd5b80356001600160a01b03811681146102f957600080fd5b919050565b6000806040838503121561031157600080fd5b823567ffffffffffffffff8082111561032957600080fd5b818501915085601f83011261033d57600080fd5b81358181111561034f5761034f6102cc565b604051601f8201601f19908116603f01168101908382118183101715610377576103776102cc565b8160405282815288602084870101111561039057600080fd5b8260208601602083013760006020848301015280965050505050506103b7602084016102e2565b90509250929050565b600181811c908216806103d457607f821691505b602082108114156103f557634e487b7160e01b600052602260045260246000fd5b50919050565b6000821982111561041c57634e487b7160e01b600052601160045260246000fd5b50019056fea2646970667358221220d0f898d90af15c2dfe0ef8bca578736618ff9a1e6fc2f859cb0e6f08ab509d6864736f6c63430008090033",
  "immutableReferences": {},
  "source": "// SPDX-License-Identifier: MIT\r\n\r\npragma solidity 0.8.9;\r\n\r\n\r\ncontract FoundationV1 {\r\n    string public name;\r\n    address public owner;\r\n    uint256 public balance;\r\n\r\n    function initialize(\r\n        string memory _name,\r\n        address _owner\r\n    ) public {\r\n        name = _name;\r\n        owner = _owner;\r\n    }\r\n\r\n    function replenish() payable public{\r\n        balance += msg.value;\r\n    }\r\n\r\n}",
  "sourcePath": "D:\\Applicature\\beacon\\contracts\\FoundationV1.sol",
  "compiler": {
    "name": "solc",
    "version": "0.8.9+commit.e5eed63a.Emscripten.clang"
  },
  "schemaVersion": "3.4.4",
  "updatedAt": "2022-05-26T14:16:50.019Z",
  "networkType": "ethereum",
  "devdoc": {
    "kind": "dev",
    "methods": {},
    "version": 1
  },
  "userdoc": {
    "kind": "user",
    "methods": {},
    "version": 1
  }
}