{
  "contractName": "FoundationV2",
  "abi": [
    {
      "inputs": [],
      "name": "balance",
      "outputs": [
        {
          "internalType": "uint256",
          "name": "",
          "type": "uint256"
        }
      ],
      "stateMutability": "view",
      "type": "function",
      "constant": true
    },
    {
      "inputs": [],
      "name": "name",
      "outputs": [
        {
          "internalType": "string",
          "name": "",
          "type": "string"
        }
      ],
      "stateMutability": "view",
      "type": "function",
      "constant": true
    },
    {
      "inputs": [],
      "name": "owner",
      "outputs": [
        {
          "internalType": "address",
          "name": "",
          "type": "address"
        }
      ],
      "stateMutability": "view",
      "type": "function",
      "constant": true
    },
    {
      "inputs": [
        {
          "internalType": "string",
          "name": "_name",
          "type": "string"
        },
        {
          "internalType": "address",
          "name": "_owner",
          "type": "address"
        }
      ],
      "name": "initialize",
      "outputs": [],
      "stateMutability": "nonpayable",
      "type": "function"
    },
    {
      "inputs": [],
      "name": "replenish",
      "outputs": [],
      "stateMutability": "payable",
      "type": "function",
      "payable": true
    },
    {
      "inputs": [],
      "name": "withdraw",
      "outputs": [],
      "stateMutability": "nonpayable",
      "type": "function"
    }
  ],
  "bytecode": "0x608060405234801561001057600080fd5b50610519806100206000396000f3fe6080604052600436106100555760003560e01c806306fdde031461005a5780633ccfd60b146100855780637ab4339d1461009c5780638da5cb5b146100bc578063b69ef8a8146100f4578063d163af7b14610118575b600080fd5b34801561006657600080fd5b5061006f610120565b60405161007c9190610339565b60405180910390f35b34801561009157600080fd5b5061009a6101ae565b005b3480156100a857600080fd5b5061009a6100b73660046103c0565b610250565b3480156100c857600080fd5b506001546100dc906001600160a01b031681565b6040516001600160a01b03909116815260200161007c565b34801561010057600080fd5b5061010a60025481565b60405190815260200161007c565b61009a610287565b6000805461012d90610482565b80601f016020809104026020016040519081016040528092919081815260200182805461015990610482565b80156101a65780601f1061017b576101008083540402835291602001916101a6565b820191906000526020600020905b81548152906001019060200180831161018957829003601f168201915b505050505081565b6001546002546040516000926001600160a01b031691908381818185875af1925050503d80600081146101fd576040519150601f19603f3d011682016040523d82523d6000602084013e610202565b606091505b505090508061024d5760405162461bcd60e51b8152602060048201526013602482015272151c985b9cd9995c88195d1a0819985a5b1959606a1b604482015260640160405180910390fd5b50565b81516102639060009060208501906102a0565b50600180546001600160a01b0319166001600160a01b039290921691909117905550565b346002600082825461029991906104bd565b9091555050565b8280546102ac90610482565b90600052602060002090601f0160209004810192826102ce5760008555610314565b82601f106102e757805160ff1916838001178555610314565b82800160010185558215610314579182015b828111156103145782518255916020019190600101906102f9565b50610320929150610324565b5090565b5b808211156103205760008155600101610325565b600060208083528351808285015260005b818110156103665785810183015185820160400152820161034a565b81811115610378576000604083870101525b50601f01601f1916929092016040019392505050565b634e487b7160e01b600052604160045260246000fd5b80356001600160a01b03811681146103bb57600080fd5b919050565b600080604083850312156103d357600080fd5b823567ffffffffffffffff808211156103eb57600080fd5b818501915085601f8301126103ff57600080fd5b8135818111156104115761041161038e565b604051601f8201601f19908116603f011681019083821181831017156104395761043961038e565b8160405282815288602084870101111561045257600080fd5b826020860160208301376000602084830101528096505050505050610479602084016103a4565b90509250929050565b600181811c9082168061049657607f821691505b602082108114156104b757634e487b7160e01b600052602260045260246000fd5b50919050565b600082198211156104de57634e487b7160e01b600052601160045260246000fd5b50019056fea26469706673582212202d1e3c9edd098bc7949bccc455f14a3a3de4e58780c51b7ec51411c65182f6b264736f6c63430008090033",
  "immutableReferences": {},
  "source": "// SPDX-License-Identifier: MIT\r\n\r\npragma solidity 0.8.9;\r\n\r\n\r\ncontract FoundationV2 {\r\n    string public name;\r\n    address public owner;\r\n    uint256 public balance;\r\n\r\n    function initialize(\r\n        string memory _name,\r\n        address _owner\r\n    ) public {\r\n        name = _name;\r\n        owner = _owner;\r\n    }\r\n\r\n    function replenish() payable public{\r\n        balance += msg.value;\r\n    }\r\n\r\n    function withdraw() public {\r\n        (bool result,) = owner.call{value: balance}(\"\"); \r\n        require(result, \"Transfer eth failed\");\r\n    }\r\n\r\n}",
  "sourcePath": "D:\\Applicature\\beacon\\contracts\\FoundationV2.sol",
  "compiler": {
    "name": "solc",
    "version": "0.8.9+commit.e5eed63a.Emscripten.clang"
  },
  "schemaVersion": "3.4.4",
  "updatedAt": "2022-05-26T14:16:50.022Z",
  "networkType": "ethereum",
  "devdoc": {
    "kind": "dev",
    "methods": {},
    "version": 1
  },
  "userdoc": {
    "kind": "user",
    "methods": {},
    "version": 1
  }
}