{
  "contractName": "MarketFactory",
  "abi": [
    {
      "inputs": [
        {
          "internalType": "address",
          "name": "_logic",
          "type": "address"
        }
      ],
      "stateMutability": "nonpayable",
      "type": "constructor"
    },
    {
      "anonymous": false,
      "inputs": [
        {
          "indexed": true,
          "internalType": "address",
          "name": "previousOwner",
          "type": "address"
        },
        {
          "indexed": true,
          "internalType": "address",
          "name": "newOwner",
          "type": "address"
        }
      ],
      "name": "OwnershipTransferred",
      "type": "event"
    },
    {
      "inputs": [],
      "name": "owner",
      "outputs": [
        {
          "internalType": "address",
          "name": "",
          "type": "address"
        }
      ],
      "stateMutability": "view",
      "type": "function"
    },
    {
      "inputs": [],
      "name": "parameters",
      "outputs": [
        {
          "internalType": "string",
          "name": "name",
          "type": "string"
        },
        {
          "internalType": "string",
          "name": "symbol",
          "type": "string"
        }
      ],
      "stateMutability": "view",
      "type": "function"
    },
    {
      "inputs": [],
      "name": "renounceOwnership",
      "outputs": [],
      "stateMutability": "nonpayable",
      "type": "function"
    },
    {
      "inputs": [
        {
          "internalType": "address",
          "name": "newOwner",
          "type": "address"
        }
      ],
      "name": "transferOwnership",
      "outputs": [],
      "stateMutability": "nonpayable",
      "type": "function"
    },
    {
      "inputs": [
        {
          "internalType": "address",
          "name": "newLogicImpl",
          "type": "address"
        }
      ],
      "name": "upgrade",
      "outputs": [],
      "stateMutability": "nonpayable",
      "type": "function"
    },
    {
      "inputs": [
        {
          "internalType": "string",
          "name": "_name",
          "type": "string"
        },
        {
          "internalType": "string",
          "name": "_symbol",
          "type": "string"
        }
      ],
      "name": "createMarket",
      "outputs": [
        {
          "internalType": "address",
          "name": "",
          "type": "address"
        }
      ],
      "stateMutability": "nonpayable",
      "type": "function"
    }
  ],
  "bytecode": "0x60a06040523480156200001157600080fd5b5060405162002195380380620021958339818101604052810190620000379190620001c8565b620000576200004b6200009260201b60201c565b6200009a60201b60201c565b8073ffffffffffffffffffffffffffffffffffffffff1660808173ffffffffffffffffffffffffffffffffffffffff168152505050620001fa565b600033905090565b60008060009054906101000a900473ffffffffffffffffffffffffffffffffffffffff169050816000806101000a81548173ffffffffffffffffffffffffffffffffffffffff021916908373ffffffffffffffffffffffffffffffffffffffff1602179055508173ffffffffffffffffffffffffffffffffffffffff168173ffffffffffffffffffffffffffffffffffffffff167f8be0079c531659141344cd1fd0a4f28419497f9722a3daafe3b4186f6b6457e060405160405180910390a35050565b600080fd5b600073ffffffffffffffffffffffffffffffffffffffff82169050919050565b6000620001908262000163565b9050919050565b620001a28162000183565b8114620001ae57600080fd5b50565b600081519050620001c28162000197565b92915050565b600060208284031215620001e157620001e06200015e565b5b6000620001f184828501620001b1565b91505092915050565b608051611f786200021d600039600081816101bb01526106210152611f786000f3fe60806040523480156200001157600080fd5b50600436106200006a5760003560e01c80630900f010146200006f578063715018a6146200008f57806389035730146200009b5780638da5cb5b14620000be578063f2fde38b14620000e0578063f39122a11462000100575b600080fd5b6200008d600480360381019062000087919062000988565b62000136565b005b620000996200024b565b005b620000a5620002dc565b604051620000b592919062000a5e565b60405180910390f35b620000c86200040e565b604051620000d7919062000aaa565b60405180910390f35b620000fe6004803603810190620000f8919062000988565b62000437565b005b6200011e600480360381019062000118919062000b35565b6200053b565b6040516200012d919062000aaa565b60405180910390f35b6200014062000749565b73ffffffffffffffffffffffffffffffffffffffff16620001606200040e565b73ffffffffffffffffffffffffffffffffffffffff1614620001b9576040517f08c379a0000000000000000000000000000000000000000000000000000000008152600401620001b09062000c13565b60405180910390fd5b7f000000000000000000000000000000000000000000000000000000000000000073ffffffffffffffffffffffffffffffffffffffff16633659cfe6826040518263ffffffff1660e01b815260040162000214919062000aaa565b600060405180830381600087803b1580156200022f57600080fd5b505af115801562000244573d6000803e3d6000fd5b5050505050565b6200025562000749565b73ffffffffffffffffffffffffffffffffffffffff16620002756200040e565b73ffffffffffffffffffffffffffffffffffffffff1614620002ce576040517f08c379a0000000000000000000000000000000000000000000000000000000008152600401620002c59062000c13565b60405180910390fd5b620002da600062000751565b565b6001806000018054620002ef9062000c64565b80601f01602080910402602001604051908101604052809291908181526020018280546200031d9062000c64565b80156200036e5780601f1062000342576101008083540402835291602001916200036e565b820191906000526020600020905b8154815290600101906020018083116200035057829003601f168201915b505050505090806001018054620003859062000c64565b80601f0160208091040260200160405190810160405280929190818152602001828054620003b39062000c64565b8015620004045780601f10620003d85761010080835404028352916020019162000404565b820191906000526020600020905b815481529060010190602001808311620003e657829003601f168201915b5050505050905082565b60008060009054906101000a900473ffffffffffffffffffffffffffffffffffffffff16905090565b6200044162000749565b73ffffffffffffffffffffffffffffffffffffffff16620004616200040e565b73ffffffffffffffffffffffffffffffffffffffff1614620004ba576040517f08c379a0000000000000000000000000000000000000000000000000000000008152600401620004b19062000c13565b60405180910390fd5b600073ffffffffffffffffffffffffffffffffffffffff168173ffffffffffffffffffffffffffffffffffffffff1614156200052d576040517f08c379a0000000000000000000000000000000000000000000000000000000008152600401620005249062000d10565b60405180910390fd5b620005388162000751565b50565b6000604051806040016040528086868080601f016020809104026020016040519081016040528093929190818152602001838380828437600081840152601f19601f82011690508083019250505050505050815260200184848080601f016020809104026020016040519081016040528093929190818152602001838380828437600081840152601f19601f8201169050808301925050505050505081525060016000820151816000019080519060200190620005fa92919062000815565b5060208201518160010190805190602001906200061992919062000815565b5090505060007f00000000000000000000000000000000000000000000000000000000000000006001600001600180016040516024016200065c92919062000dd3565b6040516020818303038152906040527fcca234b1000000000000000000000000000000000000000000000000000000007bffffffffffffffffffffffffffffffffffffffffffffffffffffffff19166020820180517bffffffffffffffffffffffffffffffffffffffffffffffffffffffff8381831617835250505050604051620006e790620008a6565b620006f492919062000e6b565b604051809103906000f08015801562000711573d6000803e3d6000fd5b509050600160008082016000620007299190620008b4565b6001820160006200073b9190620008b4565b505080915050949350505050565b600033905090565b60008060009054906101000a900473ffffffffffffffffffffffffffffffffffffffff169050816000806101000a81548173ffffffffffffffffffffffffffffffffffffffff021916908373ffffffffffffffffffffffffffffffffffffffff1602179055508173ffffffffffffffffffffffffffffffffffffffff168173ffffffffffffffffffffffffffffffffffffffff167f8be0079c531659141344cd1fd0a4f28419497f9722a3daafe3b4186f6b6457e060405160405180910390a35050565b828054620008239062000c64565b90600052602060002090601f01602090048101928262000847576000855562000893565b82601f106200086257805160ff191683800117855562000893565b8280016001018555821562000893579182015b828111156200089257825182559160200191906001019062000875565b5b509050620008a29190620008fa565b5090565b6110a38062000ea083390190565b508054620008c29062000c64565b6000825580601f10620008d65750620008f7565b601f016020900490600052602060002090810190620008f69190620008fa565b5b50565b5b8082111562000915576000816000905550600101620008fb565b5090565b600080fd5b600080fd5b600073ffffffffffffffffffffffffffffffffffffffff82169050919050565b6000620009508262000923565b9050919050565b620009628162000943565b81146200096e57600080fd5b50565b600081359050620009828162000957565b92915050565b600060208284031215620009a157620009a062000919565b5b6000620009b18482850162000971565b91505092915050565b600081519050919050565b600082825260208201905092915050565b60005b83811015620009f6578082015181840152602081019050620009d9565b8381111562000a06576000848401525b50505050565b6000601f19601f8301169050919050565b600062000a2a82620009ba565b62000a368185620009c5565b935062000a48818560208601620009d6565b62000a538162000a0c565b840191505092915050565b6000604082019050818103600083015262000a7a818562000a1d565b9050818103602083015262000a90818462000a1d565b90509392505050565b62000aa48162000943565b82525050565b600060208201905062000ac1600083018462000a99565b92915050565b600080fd5b600080fd5b600080fd5b60008083601f84011262000aef5762000aee62000ac7565b5b8235905067ffffffffffffffff81111562000b0f5762000b0e62000acc565b5b60208301915083600182028301111562000b2e5762000b2d62000ad1565b5b9250929050565b6000806000806040858703121562000b525762000b5162000919565b5b600085013567ffffffffffffffff81111562000b735762000b726200091e565b5b62000b818782880162000ad6565b9450945050602085013567ffffffffffffffff81111562000ba75762000ba66200091e565b5b62000bb58782880162000ad6565b925092505092959194509250565b7f4f776e61626c653a2063616c6c6572206973206e6f7420746865206f776e6572600082015250565b600062000bfb602083620009c5565b915062000c088262000bc3565b602082019050919050565b6000602082019050818103600083015262000c2e8162000bec565b9050919050565b7f4e487b7100000000000000000000000000000000000000000000000000000000600052602260045260246000fd5b6000600282049050600182168062000c7d57607f821691505b6020821081141562000c945762000c9362000c35565b5b50919050565b7f4f776e61626c653a206e6577206f776e657220697320746865207a65726f206160008201527f6464726573730000000000000000000000000000000000000000000000000000602082015250565b600062000cf8602683620009c5565b915062000d058262000c9a565b604082019050919050565b6000602082019050818103600083015262000d2b8162000ce9565b9050919050565b60008190508160005260206000209050919050565b6000815462000d568162000c64565b62000d628186620009c5565b9450600182166000811462000d80576001811462000d935762000dca565b60ff198316865260208601935062000dca565b62000d9e8562000d32565b60005b8381101562000dc25781548189015260018201915060208101905062000da1565b808801955050505b50505092915050565b6000604082019050818103600083015262000def818562000d47565b9050818103602083015262000e05818462000d47565b90509392505050565b600081519050919050565b600082825260208201905092915050565b600062000e378262000e0e565b62000e43818562000e19565b935062000e55818560208601620009d6565b62000e608162000a0c565b840191505092915050565b600060408201905062000e82600083018562000a99565b818103602083015262000e96818462000e2a565b9050939250505056fe6080604052604051620010a3380380620010a383398181016040528101906200002991906200071a565b60017fa3f0ad74e5423aebfd80d3ef4346578335a9a72aeaee59ff6cb3582b35133d5160001c6200005b9190620007b9565b60001b7fa3f0ad74e5423aebfd80d3ef4346578335a9a72aeaee59ff6cb3582b35133d5060001b14620000935762000092620007f4565b5b620000a782826000620000af60201b60201c565b505062000b04565b620000c083620001b660201b60201c565b8273ffffffffffffffffffffffffffffffffffffffff167f1cf3b03a6cf19fa2baba4df148e9dcabedea7f8a5c07840e207e5c089be95d3e60405160405180910390a2600082511180620001115750805b15620001b157620001af8373ffffffffffffffffffffffffffffffffffffffff16635c60da1b6040518163ffffffff1660e01b815260040160206040518083038186803b1580156200016257600080fd5b505afa15801562000177573d6000803e3d6000fd5b505050506040513d601f19601f820116820180604052508101906200019d919062000823565b836200036560201b620000371760201c565b505b505050565b620001cc816200039b60201b620000641760201c565b6200020e576040517f08c379a00000000000000000000000000000000000000000000000000000000081526004016200020590620008dc565b60405180910390fd5b620002a58173ffffffffffffffffffffffffffffffffffffffff16635c60da1b6040518163ffffffff1660e01b815260040160206040518083038186803b1580156200025957600080fd5b505afa1580156200026e573d6000803e3d6000fd5b505050506040513d601f19601f8201168201806040525081019062000294919062000823565b6200039b60201b620000641760201c565b620002e7576040517f08c379a0000000000000000000000000000000000000000000000000000000008152600401620002de9062000974565b60405180910390fd5b80620003217fa3f0ad74e5423aebfd80d3ef4346578335a9a72aeaee59ff6cb3582b35133d5060001b620003be60201b620000871760201c565b60000160006101000a81548173ffffffffffffffffffffffffffffffffffffffff021916908373ffffffffffffffffffffffffffffffffffffffff16021790555050565b60606200039383836040518060600160405280602781526020016200107c60279139620003c860201b60201c565b905092915050565b6000808273ffffffffffffffffffffffffffffffffffffffff163b119050919050565b6000819050919050565b6060620003db846200039b60201b60201c565b6200041d576040517f08c379a0000000000000000000000000000000000000000000000000000000008152600401620004149062000a0c565b60405180910390fd5b6000808573ffffffffffffffffffffffffffffffffffffffff168560405162000447919062000a7b565b600060405180830381855af49150503d806000811462000484576040519150601f19603f3d011682016040523d82523d6000602084013e62000489565b606091505b5091509150620004a1828286620004ac60201b60201c565b925050509392505050565b60608315620004be5782905062000511565b600083511115620004d25782518084602001fd5b816040517f08c379a000000000000000000000000000000000000000000000000000000000815260040162000508919062000ae0565b60405180910390fd5b9392505050565b6000604051905090565b600080fd5b600080fd5b600073ffffffffffffffffffffffffffffffffffffffff82169050919050565b600062000559826200052c565b9050919050565b6200056b816200054c565b81146200057757600080fd5b50565b6000815190506200058b8162000560565b92915050565b600080fd5b600080fd5b6000601f19601f8301169050919050565b7f4e487b7100000000000000000000000000000000000000000000000000000000600052604160045260246000fd5b620005e6826200059b565b810181811067ffffffffffffffff82111715620006085762000607620005ac565b5b80604052505050565b60006200061d62000518565b90506200062b8282620005db565b919050565b600067ffffffffffffffff8211156200064e576200064d620005ac565b5b62000659826200059b565b9050602081019050919050565b60005b838110156200068657808201518184015260208101905062000669565b8381111562000696576000848401525b50505050565b6000620006b3620006ad8462000630565b62000611565b905082815260208101848484011115620006d257620006d162000596565b5b620006df84828562000666565b509392505050565b600082601f830112620006ff57620006fe62000591565b5b8151620007118482602086016200069c565b91505092915050565b6000806040838503121562000734576200073362000522565b5b600062000744858286016200057a565b925050602083015167ffffffffffffffff81111562000768576200076762000527565b5b6200077685828601620006e7565b9150509250929050565b6000819050919050565b7f4e487b7100000000000000000000000000000000000000000000000000000000600052601160045260246000fd5b6000620007c68262000780565b9150620007d38362000780565b925082821015620007e957620007e86200078a565b5b828203905092915050565b7f4e487b7100000000000000000000000000000000000000000000000000000000600052600160045260246000fd5b6000602082840312156200083c576200083b62000522565b5b60006200084c848285016200057a565b91505092915050565b600082825260208201905092915050565b7f455243313936373a206e657720626561636f6e206973206e6f74206120636f6e60008201527f7472616374000000000000000000000000000000000000000000000000000000602082015250565b6000620008c460258362000855565b9150620008d18262000866565b604082019050919050565b60006020820190508181036000830152620008f781620008b5565b9050919050565b7f455243313936373a20626561636f6e20696d706c656d656e746174696f6e206960008201527f73206e6f74206120636f6e747261637400000000000000000000000000000000602082015250565b60006200095c60308362000855565b91506200096982620008fe565b604082019050919050565b600060208201905081810360008301526200098f816200094d565b9050919050565b7f416464726573733a2064656c65676174652063616c6c20746f206e6f6e2d636f60008201527f6e74726163740000000000000000000000000000000000000000000000000000602082015250565b6000620009f460268362000855565b915062000a018262000996565b604082019050919050565b6000602082019050818103600083015262000a2781620009e5565b9050919050565b600081519050919050565b600081905092915050565b600062000a518262000a2e565b62000a5d818562000a39565b935062000a6f81856020860162000666565b80840191505092915050565b600062000a89828462000a44565b915081905092915050565b600081519050919050565b600062000aac8262000a94565b62000ab8818562000855565b935062000aca81856020860162000666565b62000ad5816200059b565b840191505092915050565b6000602082019050818103600083015262000afc818462000a9f565b905092915050565b6105688062000b146000396000f3fe6080604052366100135761001161001d565b005b61001b61001d565b005b610025610091565b610035610030610093565b61011f565b565b606061005c838360405180606001604052806027815260200161050c60279139610145565b905092915050565b6000808273ffffffffffffffffffffffffffffffffffffffff163b119050919050565b6000819050919050565b565b600061009d610212565b73ffffffffffffffffffffffffffffffffffffffff16635c60da1b6040518163ffffffff1660e01b815260040160206040518083038186803b1580156100e257600080fd5b505afa1580156100f6573d6000803e3d6000fd5b505050506040513d601f19601f8201168201806040525081019061011a9190610333565b905090565b3660008037600080366000845af43d6000803e8060008114610140573d6000f35b3d6000fd5b606061015084610064565b61018f576040517f08c379a0000000000000000000000000000000000000000000000000000000008152600401610186906103e3565b60405180910390fd5b6000808573ffffffffffffffffffffffffffffffffffffffff16856040516101b7919061047d565b600060405180830381855af49150503d80600081146101f2576040519150601f19603f3d011682016040523d82523d6000602084013e6101f7565b606091505b5091509150610207828286610269565b925050509392505050565b60006102407fa3f0ad74e5423aebfd80d3ef4346578335a9a72aeaee59ff6cb3582b35133d5060001b610087565b60000160009054906101000a900473ffffffffffffffffffffffffffffffffffffffff16905090565b60608315610279578290506102c9565b60008351111561028c5782518084602001fd5b816040517f08c379a00000000000000000000000000000000000000000000000000000000081526004016102c091906104e9565b60405180910390fd5b9392505050565b600080fd5b600073ffffffffffffffffffffffffffffffffffffffff82169050919050565b6000610300826102d5565b9050919050565b610310816102f5565b811461031b57600080fd5b50565b60008151905061032d81610307565b92915050565b600060208284031215610349576103486102d0565b5b60006103578482850161031e565b91505092915050565b600082825260208201905092915050565b7f416464726573733a2064656c65676174652063616c6c20746f206e6f6e2d636f60008201527f6e74726163740000000000000000000000000000000000000000000000000000602082015250565b60006103cd602683610360565b91506103d882610371565b604082019050919050565b600060208201905081810360008301526103fc816103c0565b9050919050565b600081519050919050565b600081905092915050565b60005b8381101561043757808201518184015260208101905061041c565b83811115610446576000848401525b50505050565b600061045782610403565b610461818561040e565b9350610471818560208601610419565b80840191505092915050565b6000610489828461044c565b915081905092915050565b600081519050919050565b6000601f19601f8301169050919050565b60006104bb82610494565b6104c58185610360565b93506104d5818560208601610419565b6104de8161049f565b840191505092915050565b6000602082019050818103600083015261050381846104b0565b90509291505056fe416464726573733a206c6f772d6c6576656c2064656c65676174652063616c6c206661696c6564a2646970667358221220c83aed4153dff54295e1d470cff3292ddcf90c9d275e7585d7537737cebfc89164736f6c63430008090033416464726573733a206c6f772d6c6576656c2064656c65676174652063616c6c206661696c6564a2646970667358221220a170ae22f490ca9ad8d0711b8548774caeb780177f290c7d103686a3416e811364736f6c63430008090033",
  "immutableReferences": {
    "1043": [
      {
        "length": 32,
        "start": 443
      },
      {
        "length": 32,
        "start": 1569
      }
    ]
  },
  "source": "// SPDX-License-Identifier: MIT\r\n\r\npragma solidity 0.8.9;\r\n\r\nimport \"@openzeppelin/contracts/proxy/beacon/BeaconProxy.sol\";\r\nimport \"@openzeppelin/contracts/proxy/beacon/UpgradeableBeacon.sol\";\r\nimport \"@openzeppelin/contracts/access/Ownable.sol\";\r\n\r\ncontract MarketFactory is Ownable {\r\n    // ======== Structs ========\r\n    struct Parameters {\r\n        string name;\r\n        string symbol;\r\n    }\r\n\r\n    // ======== Immutable storage ========\r\n    // upgradeable beacon\r\n    UpgradeableBeacon immutable upgradeableBeacon;\r\n\r\n    // ======== Mutable storage ========\r\n    Parameters public parameters;\r\n\r\n    // ======== Constructor ========\r\n    // the constructor deploys an initial version that will act as a template\r\n    constructor(address _logic) {\r\n        upgradeableBeacon =  UpgradeableBeacon(_logic);\r\n    }\r\n\r\n    function upgrade(address newLogicImpl) onlyOwner public {\r\n        upgradeableBeacon.upgradeTo(newLogicImpl);\r\n    }\r\n\r\n    // ======== Deploy contract ========\r\n    function createMarket(string calldata _name, string calldata _symbol)\r\n        external\r\n        returns (address)\r\n    {\r\n        parameters = Parameters({name: _name, symbol: _symbol});\r\n        BeaconProxy proxy = new BeaconProxy(\r\n           address(upgradeableBeacon),\r\n        abi.encodeWithSignature(\"initialize(string memory, string memory)\", parameters.name, parameters.symbol)\r\n        );\r\n        delete parameters;\r\n        return address(proxy);\r\n    }\r\n}",
  "sourcePath": "D:\\Applicature\\beacon\\contracts\\MarketFactory.sol",
  "compiler": {
    "name": "solc",
    "version": "0.8.9+commit.e5eed63a.Emscripten.clang"
  },
  "schemaVersion": "3.4.4",
  "updatedAt": "2022-05-26T10:03:26.947Z",
  "devdoc": {
    "kind": "dev",
    "methods": {
      "owner()": {
        "details": "Returns the address of the current owner."
      },
      "renounceOwnership()": {
        "details": "Leaves the contract without owner. It will not be possible to call `onlyOwner` functions anymore. Can only be called by the current owner. NOTE: Renouncing ownership will leave the contract without an owner, thereby removing any functionality that is only available to the owner."
      },
      "transferOwnership(address)": {
        "details": "Transfers ownership of the contract to a new account (`newOwner`). Can only be called by the current owner."
      }
    },
    "version": 1
  },
  "userdoc": {
    "kind": "user",
    "methods": {},
    "version": 1
  }
}